:020000020000FC
:040000000C94A500B7
:04002C000C943400FC
:100068002F922FB62F920F9300E00093850000E0A7
:1000780000938400F79A0F912F902FBE2F90189518
:10008800F89400E204B900E105B9089500E000938E
:10009800800003E00093810009E00093890004ECEC
:1000A8000093880002E000936F000091160000930F
:1000B800160008950895F798F69A00911C010A957C
:1000C80011F000931C010AE000931C01F09B0AC088
:1000D800F1990C947A0000911C010A9539F000936B
:1000E8001C0106C00AE000931C0102C0F19A00C07E
:1000F800089500911B0103950B3021F000931B011B
:100108000C94890000E000931B010895F698009173
:100118001B01003021F0013069F0023061F00091DC
:100128001E010A9519F000931E010AC00AE0009307
:100138001E0102C005C004C010E205B1012705B9BF
:100148000895F8940E9444000E945E000E944A00AC
:100158000AE000931C0100E00EBB00931B0101E0C4
:1001680000931E017894F7990E945F00F6990E9407
:100178008A001C9BF09A1C99F098F19B0C94B7008C
:10018800F0990C94B700F1980E947D000C94B70088
:00000001FF
